{
  "contractName": "LandRegistry",
  "abi": [
    {
      "anonymous": false,
      "inputs": [
        {
          "indexed": true,
          "internalType": "uint256",
          "name": "landId",
          "type": "uint256"
        },
        {
          "indexed": true,
          "internalType": "address",
          "name": "owner",
          "type": "address"
        }
      ],
      "name": "LandRegistered",
      "type": "event"
    },
    {
      "anonymous": false,
      "inputs": [
        {
          "indexed": true,
          "internalType": "uint256",
          "name": "landId",
          "type": "uint256"
        },
        {
          "indexed": true,
          "internalType": "address",
          "name": "from",
          "type": "address"
        },
        {
          "indexed": true,
          "internalType": "address",
          "name": "to",
          "type": "address"
        }
      ],
      "name": "OwnershipTransferred",
      "type": "event"
    },
    {
      "inputs": [],
      "name": "landCounter",
      "outputs": [
        {
          "internalType": "uint256",
          "name": "",
          "type": "uint256"
        }
      ],
      "stateMutability": "view",
      "type": "function",
      "constant": true
    },
    {
      "inputs": [
        {
          "internalType": "uint256",
          "name": "",
          "type": "uint256"
        }
      ],
      "name": "lands",
      "outputs": [
        {
          "internalType": "uint256",
          "name": "id",
          "type": "uint256"
        },
        {
          "internalType": "string",
          "name": "location",
          "type": "string"
        },
        {
          "internalType": "uint256",
          "name": "area",
          "type": "uint256"
        },
        {
          "internalType": "address",
          "name": "owner",
          "type": "address"
        },
        {
          "internalType": "bool",
          "name": "isRegistered",
          "type": "bool"
        },
        {
          "internalType": "bool",
          "name": "transferred",
          "type": "bool"
        }
      ],
      "stateMutability": "view",
      "type": "function",
      "constant": true
    },
    {
      "inputs": [
        {
          "internalType": "address",
          "name": "",
          "type": "address"
        },
        {
          "internalType": "uint256",
          "name": "",
          "type": "uint256"
        }
      ],
      "name": "ownerToLands",
      "outputs": [
        {
          "internalType": "uint256",
          "name": "",
          "type": "uint256"
        }
      ],
      "stateMutability": "view",
      "type": "function",
      "constant": true
    },
    {
      "inputs": [
        {
          "internalType": "string",
          "name": "_location",
          "type": "string"
        },
        {
          "internalType": "uint256",
          "name": "_area",
          "type": "uint256"
        }
      ],
      "name": "registerLand",
      "outputs": [],
      "stateMutability": "nonpayable",
      "type": "function"
    },
    {
      "inputs": [
        {
          "internalType": "uint256",
          "name": "_landId",
          "type": "uint256"
        },
        {
          "internalType": "address",
          "name": "_to",
          "type": "address"
        }
      ],
      "name": "transferLand",
      "outputs": [],
      "stateMutability": "nonpayable",
      "type": "function"
    },
    {
      "inputs": [],
      "name": "getMyLands",
      "outputs": [
        {
          "internalType": "uint256[]",
          "name": "",
          "type": "uint256[]"
        }
      ],
      "stateMutability": "view",
      "type": "function",
      "constant": true
    },
    {
      "inputs": [
        {
          "internalType": "uint256",
          "name": "_landId",
          "type": "uint256"
        }
      ],
      "name": "getLandDetails",
      "outputs": [
        {
          "components": [
            {
              "internalType": "uint256",
              "name": "id",
              "type": "uint256"
            },
            {
              "internalType": "string",
              "name": "location",
              "type": "string"
            },
            {
              "internalType": "uint256",
              "name": "area",
              "type": "uint256"
            },
            {
              "internalType": "address",
              "name": "owner",
              "type": "address"
            },
            {
              "internalType": "bool",
              "name": "isRegistered",
              "type": "bool"
            },
            {
              "internalType": "bool",
              "name": "transferred",
              "type": "bool"
            }
          ],
          "internalType": "struct LandRegistry.Land",
          "name": "",
          "type": "tuple"
        }
      ],
      "stateMutability": "view",
      "type": "function",
      "constant": true
    }
  ],
  "bytecode": "0x608060405234801561000f575f80fd5b506115d58061001d5f395ff3fe608060405234801561000f575f80fd5b506004361061007b575f3560e01c8063c798ff7d11610059578063c798ff7d146100eb578063ce924ed914610107578063e261f1e514610123578063fe0cb7dc146101585761007b565b80630695b9c31461007f57806339577db11461009d5780639e29ce18146100cd575b5f80fd5b610087610188565b6040516100949190610b48565b60405180910390f35b6100b760048036038101906100b29190610bfd565b610219565b6040516100c49190610c4a565b60405180910390f35b6100d5610244565b6040516100e29190610c4a565b60405180910390f35b61010560048036038101906101009190610c63565b610249565b005b610121600480360381019061011c9190610ddd565b610620565b005b61013d60048036038101906101389190610e37565b6107ed565b60405161014f96959493929190610f05565b60405180910390f35b610172600480360381019061016d9190610e37565b6108e4565b60405161017f9190611057565b60405180910390f35b606060025f3373ffffffffffffffffffffffffffffffffffffffff1673ffffffffffffffffffffffffffffffffffffffff1681526020019081526020015f2080548060200260200160405190810160405280929190818152602001828054801561020f57602002820191905f5260205f20905b8154815260200190600101908083116101fb575b5050505050905090565b6002602052815f5260405f208181548110610232575f80fd5b905f5260205f20015f91509150505481565b5f5481565b813373ffffffffffffffffffffffffffffffffffffffff1660015f8381526020019081526020015f206003015f9054906101000a900473ffffffffffffffffffffffffffffffffffffffff1673ffffffffffffffffffffffffffffffffffffffff16146102eb576040517f08c379a00000000000000000000000000000000000000000000000000000000081526004016102e2906110c1565b60405180910390fd5b8260015f8281526020019081526020015f2060030160159054906101000a900460ff161561034e576040517f08c379a00000000000000000000000000000000000000000000000000000000081526004016103459061114f565b60405180910390fd5b60015f8581526020019081526020015f2060030160149054906101000a900460ff166103af576040517f08c379a00000000000000000000000000000000000000000000000000000000081526004016103a6906111b7565b60405180910390fd5b5f60015f8681526020019081526020015f206003015f9054906101000a900473ffffffffffffffffffffffffffffffffffffffff1690508360015f8781526020019081526020015f206003015f6101000a81548173ffffffffffffffffffffffffffffffffffffffff021916908373ffffffffffffffffffffffffffffffffffffffff1602179055506001805f8781526020019081526020015f2060030160156101000a81548160ff02191690831515021790555060025f8573ffffffffffffffffffffffffffffffffffffffff1673ffffffffffffffffffffffffffffffffffffffff1681526020019081526020015f2085908060018154018082558091505060019003905f5260205f20015f90919091909150555f60025f8373ffffffffffffffffffffffffffffffffffffffff1673ffffffffffffffffffffffffffffffffffffffff1681526020019081526020015f2090505f5b81805490508110156105bc5786828281548110610527576105266111d5565b5b905f5260205f200154036105a9578160018380549050610547919061122f565b81548110610558576105576111d5565b5b905f5260205f200154828281548110610574576105736111d5565b5b905f5260205f2001819055508180548061059157610590611262565b5b600190038181905f5260205f20015f905590556105bc565b80806105b49061128f565b915050610507565b508473ffffffffffffffffffffffffffffffffffffffff168273ffffffffffffffffffffffffffffffffffffffff16877f16b85f49bf01212961345d3016c9a531894accf62eb7680f2045d79185cc0ec060405160405180910390a4505050505050565b5f808154809291906106319061128f565b91905055506040518060c001604052805f5481526020018381526020018281526020013373ffffffffffffffffffffffffffffffffffffffff1681526020016001151581526020015f151581525060015f805481526020019081526020015f205f820151815f015560208201518160010190816106ae91906114d0565b50604082015181600201556060820151816003015f6101000a81548173ffffffffffffffffffffffffffffffffffffffff021916908373ffffffffffffffffffffffffffffffffffffffff16021790555060808201518160030160146101000a81548160ff02191690831515021790555060a08201518160030160156101000a81548160ff02191690831515021790555090505060025f3373ffffffffffffffffffffffffffffffffffffffff1673ffffffffffffffffffffffffffffffffffffffff1681526020019081526020015f205f54908060018154018082558091505060019003905f5260205f20015f90919091909150553373ffffffffffffffffffffffffffffffffffffffff165f547fcb4990052f95f6057496d19524f6c3163f50af9f33f2c15b092928e03414323e60405160405180910390a35050565b6001602052805f5260405f205f91509050805f01549080600101805461081290611303565b80601f016020809104026020016040519081016040528092919081815260200182805461083e90611303565b80156108895780601f1061086057610100808354040283529160200191610889565b820191905f5260205f20905b81548152906001019060200180831161086c57829003601f168201915b505050505090806002015490806003015f9054906101000a900473ffffffffffffffffffffffffffffffffffffffff16908060030160149054906101000a900460ff16908060030160159054906101000a900460ff16905086565b6108ec610a3d565b60015f8381526020019081526020015f206040518060c00160405290815f820154815260200160018201805461092190611303565b80601f016020809104026020016040519081016040528092919081815260200182805461094d90611303565b80156109985780601f1061096f57610100808354040283529160200191610998565b820191905f5260205f20905b81548152906001019060200180831161097b57829003601f168201915b5050505050815260200160028201548152602001600382015f9054906101000a900473ffffffffffffffffffffffffffffffffffffffff1673ffffffffffffffffffffffffffffffffffffffff1673ffffffffffffffffffffffffffffffffffffffff1681526020016003820160149054906101000a900460ff161515151581526020016003820160159054906101000a900460ff1615151515815250509050919050565b6040518060c001604052805f8152602001606081526020015f81526020015f73ffffffffffffffffffffffffffffffffffffffff1681526020015f151581526020015f151581525090565b5f81519050919050565b5f82825260208201905092915050565b5f819050602082019050919050565b5f819050919050565b610ac381610ab1565b82525050565b5f610ad48383610aba565b60208301905092915050565b5f602082019050919050565b5f610af682610a88565b610b008185610a92565b9350610b0b83610aa2565b805f5b83811015610b3b578151610b228882610ac9565b9750610b2d83610ae0565b925050600181019050610b0e565b5085935050505092915050565b5f6020820190508181035f830152610b608184610aec565b905092915050565b5f604051905090565b5f80fd5b5f80fd5b5f73ffffffffffffffffffffffffffffffffffffffff82169050919050565b5f610ba282610b79565b9050919050565b610bb281610b98565b8114610bbc575f80fd5b50565b5f81359050610bcd81610ba9565b92915050565b610bdc81610ab1565b8114610be6575f80fd5b50565b5f81359050610bf781610bd3565b92915050565b5f8060408385031215610c1357610c12610b71565b5b5f610c2085828601610bbf565b9250506020610c3185828601610be9565b9150509250929050565b610c4481610ab1565b82525050565b5f602082019050610c5d5f830184610c3b565b92915050565b5f8060408385031215610c7957610c78610b71565b5b5f610c8685828601610be9565b9250506020610c9785828601610bbf565b9150509250929050565b5f80fd5b5f80fd5b5f601f19601f8301169050919050565b7f4e487b71000000000000000000000000000000000000000000000000000000005f52604160045260245ffd5b610cef82610ca9565b810181811067ffffffffffffffff82111715610d0e57610d0d610cb9565b5b80604052505050565b5f610d20610b68565b9050610d2c8282610ce6565b919050565b5f67ffffffffffffffff821115610d4b57610d4a610cb9565b5b610d5482610ca9565b9050602081019050919050565b828183375f83830152505050565b5f610d81610d7c84610d31565b610d17565b905082815260208101848484011115610d9d57610d9c610ca5565b5b610da8848285610d61565b509392505050565b5f82601f830112610dc457610dc3610ca1565b5b8135610dd4848260208601610d6f565b91505092915050565b5f8060408385031215610df357610df2610b71565b5b5f83013567ffffffffffffffff811115610e1057610e0f610b75565b5b610e1c85828601610db0565b9250506020610e2d85828601610be9565b9150509250929050565b5f60208284031215610e4c57610e4b610b71565b5b5f610e5984828501610be9565b91505092915050565b5f81519050919050565b5f82825260208201905092915050565b5f5b83811015610e99578082015181840152602081019050610e7e565b5f8484015250505050565b5f610eae82610e62565b610eb88185610e6c565b9350610ec8818560208601610e7c565b610ed181610ca9565b840191505092915050565b610ee581610b98565b82525050565b5f8115159050919050565b610eff81610eeb565b82525050565b5f60c082019050610f185f830189610c3b565b8181036020830152610f2a8188610ea4565b9050610f396040830187610c3b565b610f466060830186610edc565b610f536080830185610ef6565b610f6060a0830184610ef6565b979650505050505050565b5f82825260208201905092915050565b5f610f8582610e62565b610f8f8185610f6b565b9350610f9f818560208601610e7c565b610fa881610ca9565b840191505092915050565b610fbc81610b98565b82525050565b610fcb81610eeb565b82525050565b5f60c083015f830151610fe65f860182610aba565b5060208301518482036020860152610ffe8282610f7b565b91505060408301516110136040860182610aba565b5060608301516110266060860182610fb3565b5060808301516110396080860182610fc2565b5060a083015161104c60a0860182610fc2565b508091505092915050565b5f6020820190508181035f83015261106f8184610fd1565b905092915050565b7f4e6f74206c616e64206f776e65720000000000000000000000000000000000005f82015250565b5f6110ab600e83610e6c565b91506110b682611077565b602082019050919050565b5f6020820190508181035f8301526110d88161109f565b9050919050565b7f4c616e642068617320616c7265616479206265656e207472616e7366657272655f8201527f6400000000000000000000000000000000000000000000000000000000000000602082015250565b5f611139602183610e6c565b9150611144826110df565b604082019050919050565b5f6020820190508181035f8301526111668161112d565b9050919050565b7f4c616e64206e6f742072656769737465726564000000000000000000000000005f82015250565b5f6111a1601383610e6c565b91506111ac8261116d565b602082019050919050565b5f6020820190508181035f8301526111ce81611195565b9050919050565b7f4e487b71000000000000000000000000000000000000000000000000000000005f52603260045260245ffd5b7f4e487b71000000000000000000000000000000000000000000000000000000005f52601160045260245ffd5b5f61123982610ab1565b915061124483610ab1565b925082820390508181111561125c5761125b611202565b5b92915050565b7f4e487b71000000000000000000000000000000000000000000000000000000005f52603160045260245ffd5b5f61129982610ab1565b91507fffffffffffffffffffffffffffffffffffffffffffffffffffffffffffffffff82036112cb576112ca611202565b5b600182019050919050565b7f4e487b71000000000000000000000000000000000000000000000000000000005f52602260045260245ffd5b5f600282049050600182168061131a57607f821691505b60208210810361132d5761132c6112d6565b5b50919050565b5f819050815f5260205f209050919050565b5f6020601f8301049050919050565b5f82821b905092915050565b5f6008830261138f7fffffffffffffffffffffffffffffffffffffffffffffffffffffffffffffffff82611354565b6113998683611354565b95508019841693508086168417925050509392505050565b5f819050919050565b5f6113d46113cf6113ca84610ab1565b6113b1565b610ab1565b9050919050565b5f819050919050565b6113ed836113ba565b6114016113f9826113db565b848454611360565b825550505050565b5f90565b611415611409565b6114208184846113e4565b505050565b5b81811015611443576114385f8261140d565b600181019050611426565b5050565b601f8211156114885761145981611333565b61146284611345565b81016020851015611471578190505b61148561147d85611345565b830182611425565b50505b505050565b5f82821c905092915050565b5f6114a85f198460080261148d565b1980831691505092915050565b5f6114c08383611499565b9150826002028217905092915050565b6114d982610e62565b67ffffffffffffffff8111156114f2576114f1610cb9565b5b6114fc8254611303565b611507828285611447565b5f60209050601f831160018114611538575f8415611526578287015190505b61153085826114b5565b865550611597565b601f19841661154686611333565b5f5b8281101561156d57848901518255600182019150602085019450602081019050611548565b8683101561158a5784890151611586601f891682611499565b8355505b6001600288020188555050505b50505050505056fea26469706673582212207615a27e58bdf035c21b1eb231410dabcdc79f7a932db60103715c0ea1d5888d64736f6c63430008150033",
  "immutableReferences": {},
  "source": "// SPDX-License-Identifier: MIT\r\npragma solidity ^0.8.20;\r\n\r\ncontract LandRegistry {\r\n    struct Land {\r\n        uint256 id;\r\n        string location;\r\n        uint256 area; // in square feet\r\n        address owner;\r\n        bool isRegistered;\r\n        bool transferred; // Added to track if the land is transferred\r\n    }\r\n\r\n    uint256 public landCounter;\r\n    mapping(uint256 => Land) public lands;\r\n    mapping(address => uint256[]) public ownerToLands;\r\n\r\n    event LandRegistered(uint256 indexed landId, address indexed owner);\r\n    event OwnershipTransferred(uint256 indexed landId, address indexed from, address indexed to);\r\n\r\n    modifier onlyOwner(uint256 _landId) {\r\n        require(lands[_landId].owner == msg.sender, \"Not land owner\");\r\n        _;\r\n    }\r\n\r\n    modifier isNotTransferred(uint256 _landId) {\r\n        require(!lands[_landId].transferred, \"Land has already been transferred\");\r\n        _;\r\n    }\r\n\r\n    function registerLand(string memory _location, uint256 _area) external {\r\n        landCounter++;\r\n        lands[landCounter] = Land(landCounter, _location, _area, msg.sender, true, false);\r\n        ownerToLands[msg.sender].push(landCounter);\r\n        emit LandRegistered(landCounter, msg.sender);\r\n    }\r\n\r\n    function transferLand(uint256 _landId, address _to) external onlyOwner(_landId) isNotTransferred(_landId) {\r\n        require(lands[_landId].isRegistered, \"Land not registered\");\r\n        address previousOwner = lands[_landId].owner;\r\n\r\n        // Update owner mapping\r\n        lands[_landId].owner = _to;\r\n        lands[_landId].transferred = true; // Mark as transferred\r\n        ownerToLands[_to].push(_landId);\r\n\r\n        // Remove from old owner's list (simplified, may need optimization)\r\n        uint256[] storage fromLands = ownerToLands[previousOwner];\r\n        for (uint256 i = 0; i < fromLands.length; i++) {\r\n            if (fromLands[i] == _landId) {\r\n                fromLands[i] = fromLands[fromLands.length - 1];\r\n                fromLands.pop();\r\n                break;\r\n            }\r\n        }\r\n\r\n        emit OwnershipTransferred(_landId, previousOwner, _to);\r\n    }\r\n\r\n    function getMyLands() external view returns (uint256[] memory) {\r\n        return ownerToLands[msg.sender];\r\n    }\r\n\r\n    function getLandDetails(uint256 _landId) external view returns (Land memory) {\r\n        return lands[_landId];\r\n    }\r\n}\r\n",
  "sourcePath": "C:\\Users\\shett\\Downloads\\lands_dual_contracts\\lands_dual_contracts\\contracts\\LandRegistry.sol",
  "compiler": {
    "name": "solc",
    "version": "0.8.21+commit.d9974bed.Emscripten.clang"
  },
  "schemaVersion": "3.4.16",
  "updatedAt": "2025-04-25T01:53:08.426Z",
  "networkType": "ethereum",
  "devdoc": {
    "kind": "dev",
    "methods": {},
    "version": 1
  },
  "userdoc": {
    "kind": "user",
    "methods": {},
    "version": 1
  }
}